{
  "_format": "hh-sol-artifact-1",
  "contractName": "Child",
  "sourceName": "contracts/Child.sol",
  "abi": [
    {
      "inputs": [],
      "name": "data",
      "outputs": [
        {
          "internalType": "uint256",
          "name": "",
          "type": "uint256"
        }
      ],
      "stateMutability": "view",
      "type": "function"
    },
    {
      "inputs": [
        {
          "internalType": "uint256",
          "name": "_data",
          "type": "uint256"
        }
      ],
      "name": "init",
      "outputs": [],
      "stateMutability": "nonpayable",
      "type": "function"
    }
  ],
  "bytecode": "0x608060405234801561001057600080fd5b5060ac8061001f6000396000f3fe6080604052348015600f57600080fd5b506004361060325760003560e01c806373d4a13a146037578063b7b0422d14604f575b600080fd5b603d606b565b60408051918252519081900360200190f35b606960048036036020811015606357600080fd5b50356071565b005b60005481565b60005556fea264697066735822122033f934c6ec89c88a5bc3d676588493c1fe4ddc8c9a076362a1fcd6c5f5d33b1964736f6c63430007000033",
  "linkReferences": {},
  "deployedLinkReferences": {}
}