{
  "_format": "hh-sol-artifact-1",
  "contractName": "Factory",
  "sourceName": "contracts/Factory.sol",
  "abi": [
    {
      "inputs": [
        {
          "internalType": "address",
          "name": "_masterContract",
          "type": "address"
        }
      ],
      "stateMutability": "nonpayable",
      "type": "constructor"
    },
    {
      "inputs": [
        {
          "internalType": "uint256",
          "name": "",
          "type": "uint256"
        }
      ],
      "name": "children",
      "outputs": [
        {
          "internalType": "contract Child",
          "name": "",
          "type": "address"
        }
      ],
      "stateMutability": "view",
      "type": "function"
    },
    {
      "inputs": [
        {
          "internalType": "uint256",
          "name": "data",
          "type": "uint256"
        }
      ],
      "name": "createChild",
      "outputs": [],
      "stateMutability": "nonpayable",
      "type": "function"
    },
    {
      "inputs": [],
      "name": "getChildren",
      "outputs": [
        {
          "internalType": "contract Child[]",
          "name": "",
          "type": "address[]"
        }
      ],
      "stateMutability": "view",
      "type": "function"
    }
  ],
  "bytecode": "0x608060405234801561001057600080fd5b506040516103333803806103338339818101604052602081101561003357600080fd5b5051600180546001600160a01b0319166001600160a01b039092169190911790556102d0806100636000396000f3fe608060405234801561001057600080fd5b50600436106100415760003560e01c80630419eca5146100465780634892e8e8146100655780637002ce42146100bd575b600080fd5b6100636004803603602081101561005c57600080fd5b50356100f6565b005b61006d6101bf565b60408051602080825283518183015283519192839290830191858101910280838360005b838110156100a9578181015183820152602001610091565b505050509050019250505060405180910390f35b6100da600480360360208110156100d357600080fd5b5035610221565b604080516001600160a01b039092168252519081900360200190f35b60015460009061010e906001600160a01b0316610248565b9050806001600160a01b031663b7b0422d836040518263ffffffff1660e01b815260040180828152602001915050600060405180830381600087803b15801561015657600080fd5b505af115801561016a573d6000803e3d6000fd5b5050600080546001810182559080527f290decd9548b62a8d60345a988386fc84ba6bc95484008f6362f93160ef3e5630180546001600160a01b0319166001600160a01b039490941693909317909255505050565b6060600080548060200260200160405190810160405280929190818152602001828054801561021757602002820191906000526020600020905b81546001600160a01b031681526001909101906020018083116101f9575b5050505050905090565b6000818154811061022e57fe5b6000918252602090912001546001600160a01b0316905081565b6000808260601b9050604051733d602d80600a3d3981f3363d3d373d3d3d363d7360601b81528160148201526e5af43d82803e903d91602b57fd5bf360881b60288201526037816000f094935050505056fea2646970667358221220860cbd414596bf788d0964463e87bf00bb06274386b07f50801d553cbd2850b964736f6c63430007000033",
  "linkReferences": {},
  "deployedLinkReferences": {}
}